S0160000456C656374726F6E69634C6F61642E7372656386
S11300000C946A040C9412130C9408130C94471364
S11300100C9492040C9492040C9492040C94920404
S11300200C9492040C9492040C9492040C949204F4
S11300300C9492040C9492040C9492040C949204E4
S11300400C94261B0C9492040C94FC0D0C943D0E01
S11300500C9492040C9492040C9492040C949204C4
S11300600C9492040C94920400000000003E5B4F38
S11300705B3E3E6B4F6B3E1C3E7C3E1C183C7E3C04
S1130080181C577D571C1C5E7F5E1C00183C180012
S1130090FFE7C3E7FF0018241800FFE7DBE7FF30A2
S11300A0483A060E2629792926407F050507407F10
S11300B005253F5A3CE73C5A7F3E1C1C08081C1C83
S11300C03E7F14227F22145F5F005F5F06097F0179
S11300D07F006689956A606060606094A2FFA29464
S11300E008047E040810207E201008082A1C080832
S11300F01C2A08081E101010100C1E0C1E0C303880
S11301003E3830060E3E0E06000000000000005F80
S113011000000007000700147F147F14242A7F2A9C
S1130120122313086462364956205000080703005E
S1130130001C2241000041221C002A1C7F1C2A08AA
S1130140083E08080080703000080808080800000D
S113015060600020100804023E5149453E00427F81
S1130160400072494949462141494D331814127FD0
S11301701027454545393C4A494931412111090770
S11301803649494936464949291E000014000000F1
S113019040340000000814224114141414140041C3
S11301A022140802015909063E415D594E7C121180
S11301B0127C7F494949363E414141227F414141B8
S11301C03E7F494949417F090909013E4141517333
S11301D07F0808087F00417F41002040413F017FA4
S11301E0081422417F404040407F021C027F7F046C
S11301F008107F3E4141413E7F090909063E4151B5
S1130200215E7F09192946264949493203017F01A4
S1130210033F4040403F1F2040201F3F4038403FA5
S1130220631408146303047804036159494D4300BB
S11302307F4141410204081020004141417F0402F2
S11302400102044040404040000307080020545489
S113025078407F2844443838444444283844442867
S11302607F385454541800087E090218A4A49C78BA
S11302707F0804047800447D40002040403D007F16
S11302801028440000417F40007C047804787C08F6
S11302900404783844444438FC18242418182424CA
S11302A018FC7C08040408485454542404043F44AF
S11302B0243C4040207C1C2040201C3C4030403CDE
S11302C044281028444C9090907C4464544C44003E
S11302D008364100000077000000413608000201A2
S11302E00204023C2623263C1EA1A161123A40408E
S11302F0207A38545455592155557941225454780B
S113030042215554784020545579400C1E527212A3
S1130310395555555939545454593955545458002C
S113032000457C410002457D420001457C407D1230
S113033011127DF0282528F07C5455450020545492
S11303407C547C0A097F4932494949323A4444443D
S11303503A324A4848303A4141217A3A4240207878
S1130360009DA0A07D3D4242423D3D4040403D3C79
S113037024FF2424487E4943662B2FFC2F2BFF099E
S113038029F620C0887E0903205454794100004492
S11303907D413048484A32384040227A007A0A0A7D
S11303A0727D0D19317D2629292F282629292926F0
S11303B030484D4020380808080808080808382F35
S11303C010C8ACBA2F102834FA00007B00000814BF
S11303D02A142222142A1408AA005500AAAA55AAEB
S11303E055AA000000FF00101010FF00141414FFA1
S11303F0001010FF00FF1010F010F0141414FC0093
S11304001414F700FF0000FF00FF1414F404FC149C
S11304101417101F10101F101F1414141F00101095
S113042010F0000000001F101010101F101010100A
S1130430F010000000FF101010101010101010FF2A
S113044010000000FF140000FF00FF00001F101741
S11304500000FC04F414141710171414F404F4002A
S113046000FF00F714141414141414F700F71414F0
S113047014171410101F101F141414F4141010F077
S113048010F000001F101F0000001F14000000FCEB
S1130490140000F010F01010FF10FF141414FF14D7
S11304A01010101F00000000F010FFFFFFFFFFF00E
S11304B0F0F0F0F0FFFFFF0000000000FFFF0F0F5F
S11304C00F0F0F3844443844FC4A4A4A347E02022F
S11304D00606027E027E0263554941633844443C69
S11304E004407E201E2006027E020299A5E7A599FB
S11304F01C2A492A1C4C7201724C304A4D4D303032
S113050048784830BC625A463D3E494949007E011C
S113051001017E2A2A2A2A2A44445F444440514A3B
S1130520444040444A51400000FF0103E080FF0082
S11305300008086B6B083612362436060F090F06BE
S1130540000018180000001010003040FF010100E6
S11305501F01011E00191D1712003C3C3C3C000009
S113056000000068656C700909090909093A0977EE
S1130570696C6C207072696E7420617661696C615B
S1130580626C6520636F6D6D616E647320616E646F
S113059020746865697220757361676509092000B4
S11305A0747365743F0909090909093A0977696C83
S11305B06C207072696E7420746865206375727241
S11305C0656E7420736166652074656D7065726113
S11305D0747572652073657474696E672076616CD6
S11305E075650074736574203C74656D7065726123
S11305F07475726520696E20433E093A0973657407
S11306002074686520736166652074656D70657219
S11306106174757265206C696D6974206F662074ED
S1130620686520616374697665206C6F6164092074
S11306300074656D703F0909090909093A09776968
S11306406C6C2072657475726E20746865207465B4
S11306506D7065726174757265206F66207468656B
S113066020616374697665206C6F616409092000F8
S1130670766275733F0909090909093A0977696CB2
S11306806C2072657475726E207662757320766163
S11306906C75650909090909090909200069627568
S11306A0733F0909090909093A0977696C6C2072D1
S11306B0657475726E20697368756E742076616CEA
S11306C07565090909090909092000697365743FF9
S11306D00909090909093A0977696C6C207265747A
S11306E075726E20697365742076616C756509098D
S11306F00909090909092000737461743F0909098A
S11307000909093A0977696C6C2072657475726E0F
S113071020737461747573204F4E206F72204F469E
S1130720460909090909092000696F66660909096A
S11307300909093A097475726E206F6666206C6F38
S11307406164090909090909090909092000696F8E
S11307506E0909090909093A097475726E206F6EE8
S1130760206C6F616409090909090909090909204B
S11307700069736574203C63757272656E742069D8
S11307806E206D413E09093A0973657420637572E0
S113079072656E742076616C756509090909090929
S11307A00909092000546869732069732074686515
S11307B02068656C70206D6573736167652C2079A2
S11307C06F752077696C6C2066696E64207573613F
S11307D067652062656C6F770909090909090909C8
S11307E020004552524F52282129004552524F525F
S11307F05F3100430054454D5045524154555245D4
S1130800205448524553484F4C44205345543A00D1
S1130810430054454D50455241545552453A0056B3
S113082000564255533A004100494255533A004F4D
S11308304646004F4E004552524F525F31006D41C3
S113084000495345543A0054656D703A0056696E38
S11308503A004375723A002020204C4F4144004531
S11308604C454354524F4E49430020204E45555465
S1130870524F4E00454C454354524F4E49435F4CF2
S11308804F41445F494E495449414C495345440DF5
S11308900A00747365743F0068656C700074736556
S11308A0740074656D703F00766275733F00696211
S11308B075733F00697365743F00737461743F001E
S11308C0696F666600696F6E006973657400030F73
S11308D0CB16F31611241FBECFEFD8E0DEBFCDBF79
S11308E015E0A0E0B1E0E2EEF0E402C005900D9264
S11308F0A838B107D9F726E0A8E8B5E001C01D92F1
S1130900AD3FB207E1F714E0C9E6D4E004C0219793
S1130910FE010E94E71EC736D107C9F70E9472186C
S11309200C9464200C9400002F923F924F925F929B
S11309306F927F928F929F92AF92BF92CF92DF92EB
S1130940EF92FF920F931F93CF93DF9300D000D0C9
S113095000D0CDB7DEB72C017E836D836A015901C7
S1130960C801FC82EB824801841A950A97FE03C0F1
S113097091948194910835012D813E81621A730A04
S113098077FE03C0719461947108681479045CF46F
S11309903A2D2B2D5C01832F922F3D812E81DE82F7
S11309A0CD82C32ED22EAD81BE81AA16BB065CF4C5
S11309B03C2D2D2D6C01832F922F3D812E81BE82E3
S11309C0AD82A32EB22E85012D813E81021B130B15
S11309D01C012C183D0837FE03C0319421943108C2
S11309E0780117FF03C03FEFE31AF30AF594E79485
S11309F0C816D9062CF08FEF9FEF9A83898304C021
S1130A00A1E0B0E0BA83A9832D813E81A216B3068A
S1130A1024F1D201ED91FC910480F581E02D2B812C
S1130A203C816814790424F44D815E81B60103C0CD
S1130A30A6016D817E81C2010995E218F308F7FED3
S1130A4006C029813A81C20ED31EE00EF11E8D81AB
S1130A509E8101969E838D83D7CF26960FB6F894F8
S1130A60DEBF0FBECDBFDF91CF911F910F91FF90DD
S1130A70EF90DF90CF90BF90AF909F908F907F903A
S1130A806F905F904F903F902F9008956F927F9258
S1130A908F929F92AF92BF92CF92DF92EF92FF928A
S1130AA00F931F93CF93DF93EC014B015A0169011C
S1130AB03801E881F9810284F385E02D87010995E5
S1130AC0A501460D571D41505109E881F981028461
S1130AD0F385E02D9601B401CE010995E881F981F1
S1130AE00084F185E02D9301A501B401CE0109959F
S1130AF0C80CD91CB60161507109E881F9810084E0
S1130B00F185E02D9301A501CE010995DF91CF91E7
S1130B101F910F91FF90EF90DF90CF90BF90AF9017
S1130B209F908F907F906F900895EF92FF920F9314
S1130B301F93240F351F21503109DC01ED91FC91E5
S1130B400680F781E02D780189019B0109951F91A9
S1130B500F91FF90EF900895EF92FF920F931F93E0
S1130B60260F371F21503109DC01ED91FC910680DD
S1130B70F781E02D78018A0109951F910F91FF906B
S1130B80EF9008956F927F928F929F92AF92BF924F
S1130B90CF92DF92EF92FF920F931F93CF93DF9345
S1130BA06C015A014801EB013B01620E731EC6152C
S1130BB0D70574F4D601ED91FC910084F185E02D04
S1130BC087019401A501BE01C60109952196EFCFC5
S1130BD0DF91CF911F910F91FF90EF90DF90CF9015
S1130BE0BF90AF909F908F907F906F900895EF92F9
S1130BF0FF920F931F93DC011A960D911C911B9782
S1130C0018962D913C911997ED91FC910684F785E6
S1130C10E02D7B0140E050E060E070E009951F9119
S1130C200F91FF90EF9008950895FC0113821282B2
S1130C3086E295E09183808375836483578346833A
S1130C407187608753874287158A158614861786AD
S1130C50168681E0848B2FEF3FEF338B228B318B11
S1130C60208B868B08952F923F924F925F926F92C2
S1130C707F928F929F92AF92BF92CF92DF92EF9228
S1130C80FF920F931F93CF93DF93CDB7DEB72D97CA
S1130C900FB6F894DEBF0FBECDBFDC011896ED9100
S1130CA0FC9119976E177F070CF09BC01A96ED9173
S1130CB0FC911B974E175F070CF093C08C2C912C62
S1130CC0FB01B6E0CB9EE00DF11D11241E161F069C
S1130CD00CF087C0F40133E0EE0FFF1F3A95E1F703
S1130CE0E40FF51F1E161F060CF07BC0CF82FE8298
S1130CF0ED821C830B831A015C0145E0249F900163
S1130D0011247D876C873B011A82C901861B970BCE
S1130D1099878887D1011896BB87AA87BA81B5308D
S1130D2049F0E885F985E60DF71DE859FF4F249150
S1130D30298301C0198221016101398130FF12C068
S1130D40D501ED91FC91BF81B13031F40480F5817E
S1130D50E02D2B813C8117C00684F785E02DEB80C4
S1130D60FC801BC02B813C814D815E81241735079B
S1130D70D9F0D501ED91FC91BF81B13049F40480E3
S1130D80F581E02D9A01A201B301C50109950CC0BA
S1130D900684F785E02DED80FE8084019401A60190
S1130DA06C857D85C50109952981269529833FEFA9
S1130DB0431A530AC80CD91C4A855B854416550648
S1130DC009F0BBCF5A815F5F5A838FEF681A780AA4
S1130DD0AC85BD85A80DB91DBD87AC87563009F01B
S1130DE09DCF2D960FB6F894DEBF0FBECDBFDF9119
S1130DF0CF911F910F91FF90EF90DF90CF90BF9014
S1130E00AF909F908F907F906F905F904F903F90A6
S1130E102F900895CF92EF92FF920F931F93CF9349
S1130E20DF93EC016A3059F42C898E859F8538E074
S1130E30239F800D911D11249F878E8735C06D30AF
S1130E40A9F1262FEA88FB88088919894E855F85D0
S1130E506C857D85CC880E9433064C89242F30E034
S1130E608C859D8556E0459F800D911D11249D879D
S1130E708C874E894423D1F04AEF4203B001439F4B
S1130E80700D112448855985460F571F4817590777
S1130E906CF483E0220F331F8A95E1F78E859F85DA
S1130EA0280F391F3F872E871D861C8681E090E01E
S1130EB0DF91CF911F910F91FF90EF90CF90089504
S1130EC0FC0175876487578746870895611101C0BF
S1130ED061E0FC01648B0895FC01738B628B718B60
S1130EE0608B0895FC01718B608B538B428B08954A
S1130EF0FC01668B0895FC0185890895FC018085B9
S1130F0091850895FC018285938508950F931F931D
S1130F10CF93DF93DC01FB0155968C91559782307A
S1130F2089F0833021F1813009F0E7C014968D9166
S1130F309C911597BC01641B750BAB014150510981
S1130F40BF011DC014966D917C911597CB018E1B2A
S1130F509F0BFC0116968D919C911797BC01641B05
S1130F60750BAB0141505109E21BF30BC6C0169639
S1130F706D917C9117976E1B7F0B621B730B57FD52
S1130F801BC114968D919C911597481759070CF025
S1130F9013C177FF04C0260F371F60E070E0169678
S1130FA08D919C911797FB01E20FF31F8E179F07FA
S1130FB01CF49C01261B370B121613060CF0FCC004
S1130FC0A22F862F86958695869590E8899F400D59
S1130FD0511D1124FA01E85EFE4F6770A9F198E0F3
S1130FE0961B492F50E0EA01C05FDE4F8881291724
S1130FF090F4421B51092FEF30E002C0359527953C
S11310004A95E2F782230130110541F068F002307D
S1131010110589F0D1C00130110519F42081822B0A
S11310200CC00130110520F480952081822305C075
S11310300230110531F4208182278083A91708F436
S1131040BBC0A91BE058FF4FA83048F1023011057E
S113105059F4EF018A2F988190959883C058DF4FF7
S113106088508830C0F733C081E00130110509F0A1
S113107080E08195EF019A2F8883C058DF4F985004
S11310809830D0F788EF8A0F86958695869560E824
S1131090869FE00DF11D1124E058FF4FA770AA238D
S11310A009F48AC0B0E0A85FBE4F8C9101301105ED
S11310B031F040F00230110509F07EC01BC0908170
S11310C0892B03C0809590818923808375C088EF24
S11310D08A0F86958695869570E8879FE00DF11DA9
S11310E01124E058FF4FA77009F466C0B0E0A85F70
S11310F0BE4F8C9190818927E8CF57FD5DC016962D
S11311008D919C911797481759070CF055C0F7FF1C
S113111004C02E0F3F1FE0E0F0E014968D919C91E7
S11311201597BF01620F731F861797071CF49C0164
S11311302E1B3F0B121613060CF03EC0CA0157FDBE
S1131140079663E0959587956A95E1F79695982FAC
S1131150882797958795E80FF91FE85EFE4F47703B
S1131160552781E090E001C0880F4A95EAF7482F9F
S11311700130110539F078F002301105E9F42E0F31
S11311803F1F13C02E0F3F1FE217F307A9F0808102
S1131190842B8193F9CF80952E0F3F1FE217F3071D
S11311A059F0908198239193F9CFE217F30721F036
S11311B0808184278193F9CFDF91CF911F910F9183
S11311C008950F931F93CF93DF93DC0155968C9171
S11311D05597823071F0833009F1813009F08CC069
S11311E01496ED91FC911597E41BF50BE21BF30BA0
S11311F020C01496ED91FC911597CF01861B970B97
S1131200BC01615071091696ED91FC911797CF01BD
S1131210841B950BAC01421B530B6EC01696ED91CB
S1131220FC911797CF01861B970BBC016150710984
S1131230FA0177FD1BC116968D919C91179768173B
S113124079070CF013C1F7FF04C02E0F3F1FE0E035
S1131250F0E014968D919C911597AF01420F531FA6
S1131260841795071CF49C012E1B3F0B12161306C2
S11312700CF0FCC0CB0177FD079643E0959587956C
S11312804A95E1F79695982F882797958795E80FC3
S1131290F91FE85EFE4F6770772781E090E001C098
S11312A0880F6A95EAF7482F0130110541F088F05C
S11312B00230110509F0DAC02E0F3F1F15C02E0FA2
S11312C03F1FE217F30709F4D1C08081842B819377
S11312D0F8CF80952E0F3F1FE217F30709F4C6C01D
S11312E0908198239193F8CFE217F30709F4BEC0D5
S11312F0808184278193F8CF77FDB8C014968D91AF
S11313009C911597681779070CF0B0C057FF04C07B
S1131310240F351F40E050E016968D919C9117974D
S1131320FA01E20FF31F8E179F071CF49C01241B84
S1131330350B121613060CF099C0A22F842F869534
S11313408695869590E8899F600D711D1124FB0197
S1131350E85EFE4F4770A9F198E0941B492F50E0D6
S1131360EA01C05FDE4F8881291790F4421B5109BE
S11313702FEF30E002C0359527954A95E2F7822396
S11313800130110541F068F00230110589F06EC09A
S11313900130110519F42081822B0CC00130110594
S11313A020F480952081822305C00230110531F498
S11313B0208182278083A91708F458C0A91BE0580C
S11313C0FF4FA83048F10230110559F4EF018A2F7C
S11313D0988190959883C058DF4F88508830C0F723
S11313E030C081E00130110509F080E08195EF0102
S11313F09A2F8883C058DF4F98509830D0F788EFE1
S11314008A0F86958695869590E8899FE00DF11D53
S11314101124E058FF4FA770AA2341F1B0E0A85F60
S1131420BE4F8C910130110529F038F002301105BE
S1131430E9F419C09081892B18C080959081892383
S113144014C088EF8A0F86958695869590E8899FC3
S1131450E00DF11D1124E058FF4FA77039F0B0E002
S1131460A85FBE4F8C91908189278083DF91CF91B3
S11314701F910F910895CF92DF92EF92FF920F93F5
S11314801F93CF93DF937C018B01EA01690177FD00
S1131490A0C00E947E07081719070CF09AC0D7FD58
S11314A098C0C7010E948207C817D9070CF091C0E1
S11314B0C7010E947B07823009F07FC0F701848155
S11314C095819C01201B310B8901015011098681F2
S11314D09781FC01EC1BFD0BEF0121970BC08130C0
S11314E049F4F701848195818C1B9D0BE8018C01E3
S11314F001501109F1E0CF16D10431F010F132E0BE
S1131500C316D104E1F165C0FE01D7FD379643E06F
S1131510F595E7954A95E1F7F695FE2FEE27F795B1
S1131520E7950E0F1F1FF801E85EFE4FC770DD2719
S113153081E090E001C0880FCA95EAF79081892B79
S11315403AC0FE01D7FD379623E0F595E7952A9535
S1131550E1F7F695FE2FEE27F795E7950E0F1F1F7F
S1131560F801E85EFE4FC770DD2781E090E001C01E
S1131570880FCA95EAF78095908189231CC0FE01E3
S1131580D7FD379683E0F595E7958A95E1F7F695CB
S1131590FE2FEE27F795E7950E0F1F1FF801E85E63
S11315A0FE4FC770DD2781E090E001C0880FCA9527
S11315B0EAF79081892780830CC0833009F08FCFAC
S11315C0F70186819781801B910B8E01EC01219795
S11315D091CFDF91CF911F910F91FF90EF90DF900A
S11315E0CF900895CF93DF93EC0140E450E060E89E
S11315F070E00E9415068EE395E0998388838FEF4F
S1131600898F8D8F8B8F8A8FDF91CF910895CF93A0
S1131610DF931F92CDB7DEB7698321E0AE014F5F40
S11316205F4F60E0FC0187890E9455100F90DF91A5
S1131630CF9108951F93CF93DF93EC01162F688FFA
S11316404F8B60EA76E881E090E00E943A0F6EEA00
S1131650CE010E94070B65EDCE010E94070B60E8E6
S1131660CE010E94070B68EACE010E94070B6FE3CC
S1131670CE010E94070B63EDCE010E94070B60E0D0
S1131680CE010E94070B60E4CE010E94070B6DE8B7
S1131690CE010E94070B113011F460E101C064E136
S11316A0CE010E94070B60E2CE010E94070B60E0AE
S11316B0CE010E94070B61EACE010E94070B68EC81
S11316C0CE010E94070B6AEDCE010E94070B62E176
S11316D0CE010E94070B61E8CE010E94070B113076
S11316E011F46FE901C06FECCE010E94070B69EDA4
S11316F0CE010E94070B113011F462E201C061EFC8
S1131700CE010E94070B6BEDCE010E94070B60E433
S1131710CE010E94070B64EACE010E94070B66EA21
S1131720CE010E94070B6FEACE01DF91CF911F918A
S11317300C94070B662311F067EA01C066EA0C9467
S1131740070B1F93CF93DF93EC01611105C0888DC4
S1131750813021F01FEC03C010E001C01FE961E8F3
S1131760CE010E94070B612FCE01DF91CF911F9113
S11317700C94070BFF920F931F93CF93DF93EC010D
S113178061E20E94070B60E0CE010E94070B6FE745
S1131790CE010E94070B62E2CE010E94070B60E0BB
S11317A0CE010E94070B67E0CE010E94070BF09068
S11317B0B8008CE08093B80008E111E020E1A801B2
S11317C060E48F890E945510005F1F4F85E0083147
S11317D01807A1F7F092B800DF91CF911F910F91F4
S11317E0FF90089580E094E0E8E1F1E0DF019C01DE
S11317F01D9221503040E1F708950F931F93CF932A
S1131800DF93EC01162F072F81E090E00E94361C35
S1131810FC011083998788871E830F838FEF9FEFC6
S11318209D838C839B838A83DF91CF911F910F913A
S11318300895FC0182819381019631F481E0248131
S113184035812F3F3F4F09F080E0089526E535E0CC
S1131850FC01318320830C94FD0BFC012281338134
S1131860448155812F3F8FEF380721F44F3F8FEF8D
S1131870580719F180859185DC01A20FB31F241745
S1131880350731F49C912FEF3FEF3583248312C049
S11318904217530764F44681578141505109241774
S11318A0350729F49C9113821282892F08959C9103
S11318B02F5F3F4F33832283F8CF80E00895FC01EC
S11318C022813381848195812115310539F4468142
S11318D05781415051098417950719F1A9014150C5
S11318E0510984179507E9F0468157814150510900
S11318F08417950731F4121613061CF4158214820A
S113190003C0019695838483A085B18584819581E4
S1131910A80FB91F6C9382819381019611F41382ED
S1131920128208950895FC01683018F48BE290E067
S11319300FC088EF860F863030F425E230E0318323
S11319402083828308956E50663028F488E290E004
S11319509183808362830895DC01ED91FC9111975A
S1131960429121E030E0C90112960C9002C0880F28
S1131970991F0A94E2F7842B80830895DC01ED918A
S1131980FC911197408121E030E012960C9002C046
S1131990220F331F0A94E2F7242B20830C94AC0CFF
S11319A0DC01ED91FC911197408121E030E0129629
S11319B00C9002C0220F331F0A94E2F720952423CF
S11319C020830C94AC0CCF93DF93EC010E94AC0CFD
S11319D0E881F981208181E090E00A8002C0880FCB
S11319E0991F0A94E2F782278083DF91CF910895AB
S11319F0DC01ED91FC911197429121E030E0B901B5
S1131A0012960C9002C0660F771F0A94E2F7CB017E
S1131A108095842380830895FC01A081B1819E91E7
S1131A2021E030E0A901028002C0440F551F0A944E
S1131A30E2F7842F809589238C93A081B1818C91C6
S1131A40028002C0220F331F0A94E2F72095282354
S1131A502C930895FC01A081B1819E9121E030E096
S1131A60A901028002C0440F551F0A94E2F7842F93
S1131A70809589238C93A081B1818C91028002C0CE
S1131A80220F331F0A94E2F7282B2C930895DC01CC
S1131A90ED91FC9111973297208130E0F901129673
S1131AA00C9002C0F595E7950A94E2F7CF01817096
S1131AB008950C94930CFC0124853585F901E05CB0
S1131AC0FF4F80819181329620813181821B930B5B
S1131AD08F7399270895DC011C96ED91FC911D9755
S1131AE0DF01A05CBF4F2D913C91119712968D910F
S1131AF09C9111972817390739F08D919C91E80F23
S1131B00F91F808190E008958FEF9FEF0895FC0105
S1131B10A485B585FD01E05CFF4F208131813296BB
S1131B20808191812817390779F080819181A80FEC
S1131B30B91F8C91208131812F5F3F4F2F73332741
S1131B403183208390E008958FEF9FEF0895FC0187
S1131B5086859785FC01E05CFF4FDC01AE5BBF4FDF
S1131B60408151812D913C91119742175307C1F740
S1131B7008950F931F93CF93DF93DC011E96ED918D
S1131B80FC911F978F01005C1F4FE8012881398168
S1131B902F5F3F4F2F733327AF014E5B5F4FEA0137
S1131BA08881998182179307D1F3E801488159818B
S1131BB0E40FF51F60831E96ED91FC911F97E05C86
S1131BC0FF4F318320835696ED91FC9157974081C6
S1131BD021E030E0C9015D960C9002C0880F991F86
S1131BE00A94E2F7842B808381E090E0DF91CF9127
S1131BF01F910F91089508951F920F920FB60F929F
S1131C0011242F934F935F938F939F93EF93FF939D
S1131C102091C6002D3019F481E08093A7058091AE
S1131C202D0690912E0640912F0650913006019674
S1131C308F7399274817590759F0E0912D06F091B1
S1131C402E06E351FA4F208390932E0680932D069F
S1131C50FF91EF919F918F915F914F912F910F90F1
S1131C600FBE0F901F90189588E895E00E945B0DB9
S1131C70892B11F00C94FB0D08951F920F920FB64F
S1131C800F9211242F933F938F939F93EF93FF937E
S1131C902091E9053091EA058091EB059091EC05DE
S1131CA02817390731F48091C1008F7D8093C100DA
S1131CB014C0E091EB05F091EC05E755FA4F208153
S1131CC08091EB059091EC0501968F739927909381
S1131CD0EC058093EB052093C600FF91EF919F9153
S1131CE08F913F912F910F900FBE0F901F901895D9
S1131CF0CF92DF92EF92FF92CF93DF93EC016A01D0
S1131D007B014115514E6105710509F1EC89FD898D
S1131D1081E090E00E8C02C0880F991F0A94E2F7CC
S1131D20808360E079E08DE390E0A70196010E9452
S1131D30AB1EDA01C9010197A109B109B695A795AE
S1131D40979587959C01211580E13807A8F0EC89C7
S1131D50FD89108260E874E88EE190E0A7019601A5
S1131D600E94AB1EDA01C9010197A109B109B69518
S1131D70A795979587959C01E889F9893083EA8925
S1131D80FB892083EE89FF89408181E090E09C01FA
S1131D900A8C02C0220F331F0A94E2F7242B2083FB
S1131DA0EE89FF8940819C010B8C02C0220F331FF6
S1131DB00A94E2F7242B2083EE89FF8940819C0159
S1131DC00C8C02C0220F331F0A94E2F7242B2083C9
S1131DD0EE89FF8920810D8C02C0880F991F0A9417
S1131DE0E2F78095822380831F8EDF91CF91FF904D
S1131DF0EF90DF90CF900895FC01878D882311F038
S1131E00178E81E00895E8E8F5E01382128288EEE7
S1131E1093E0A0E0B0E084839583A683B7838CE548
S1131E2095E0918380838DEE95E09587848789EA98
S1131E3095E09787868785EC90E0918B808B84EC86
S1131E4090E0938B828B80EC90E0958B848B81EC7B
S1131E5090E0978B868B86EC90E0918F808F84E066
S1131E60828F83E0838F87E0848F85E0858F81E094
S1131E70868F08959B01AC0160E074E284EF90E0EA
S1131E800E94AB1EDA01C9014097A109B109B695B8
S1131E90A795979587958F3F910509F040F4109287
S1131EA0B9008093B80024E02093BC00089580E03A
S1131EB090E008950F931F9384EA8093BC000E94DE
S1131EC06E1B6093310670933206809333069093B1
S1131ED034068091BC0087FD1EC00E946E1B0091D9
S1131EE03106109132062091330630913406AB014D
S1131EF0BC01401B510B620B730B80911805909130
S1131F001905A0E0B0E084179507A607B70708F7FE
S1131F1082E090E008C02091B900287F81E090E041
S1131F20283009F080E01F910F9108950F931F93BB
S1131F3084EA8093BC000E946E1B60933106709308
S1131F40320680933306909334068091BC0087FD5B
S1131F501EC00E946E1B0091310610913206209122
S1131F60330630913406AB01BC01401B510B620BAC
S1131F70730B8091180590911905A0E0B0E08417C7
S1131F809507A607B70708F782E090E008C02091FC
S1131F90B900287F81E090E0203109F080E01F91B2
S1131FA00F9108950F931F938093BB009091BC00F1
S1131FB093FDFACF84E88093BC000E946E1B60936B
S1131FC031067093320680933306909334068091E1
S1131FD0BC0087FD1DC00E946E1B0091310610914C
S1131FE032062091330630913406AB01BC01401B0C
S1131FF0510B620B730B8091180590911905A0E0A9
S1132000B0E084179507A607B70708F782E003C076
S11320108091B900887F1F910F9108950F931F93AA
S1132020CF93DF93EB01882311F084E801C084ECA3
S11320308093BC000E946E1B60933106709332063D
S113204080933306909334068091BC0087FD1DC0B5
S11320500E946E1B009131061091320620913306C6
S113206030913406AB01BC01401B510B620B730B66
S11320708091180590911905A0E0B0E084179507A8
S1132080A607B70708F782E004C08091BB008883E5
S113209081E0DF91CF911F910F910895880F8160A6
S11320A00C94D20F880F0C94D20FFF920F931F93AE
S11320B0CF93DF93D82FC62FF42E052F122F0E9413
S11320C05A0F8D2F0E9452108C2F0E94D20FCF2DA9
S11320D0D02FCE01810F911D8C01C017D10721F0A3
S11320E089910E94D20FF9CF84E98093BC0081E0EA
S11320F0DF91CF911F910F91FF900895CF92DF92BE
S1132100EF92FF920F931F93CF93DF93C82FD62F95
S11321108A01E22E0E945A0F8C2F0E9452108D2F9A
S11321200E94D20F0E94960F8C2F0E944E10E8013D
S1132130F12C00E010E0670181E0C81AD1080E1507
S11321401F0569F0BE01C016D10611F080E001C080
S113215081E00E940E100F5F1F4F2196F0CF84E99B
S11321608093BC0081E0DF91CF911F910F91FF908C
S1132170EF90DF90CF900895FC01608381E0089593
S1132180CF93DF9300D0CDB7DEB71A82198222E055
S1132190AE014F5F5F4FFC0180810E947E108981F8
S11321A09A819827892798270F900F90DF91CF91D4
S11321B00895CF93DF93EC0164E00E94C010BC014A
S11321C0990F880B990B0E94C81929813A814B8178
S11321D05C810E94B91ADF91CF91089562E00E9458
S11321E0C010BC01990F880B990B0E94C8192AE0F2
S11321F037ED43EA5AE30E94B91A0895CF93DF9367
S113220000D0CDB7DEB74A83598322E0AE014F5FD9
S11322105F4FFC0180810E9455100F900F90DF9159
S1132220CF910895CF92DF92EF92FF920F93E42F14
S1132230C12CD12C30E1E32E32E4F32EDC011D96C7
S1132240CD92DD92ED92FC9250974CEAC42E45EC6F
S1132250D42E47EAE42E4DE3F42E1996CD92DD9266
S1132260ED92FC921C97B8E02B9FA0011124402B07
S113227020E4E29FF00111244E2B5F2B70E0762FB7
S11322806627770F462B572B60E00E94FE1081E0F3
S11322900F91FF90EF90DF90CF9008958F929F92CF
S11322A0AF92BF92CF92DF92EF92FF920F931F9360
S11322B0CF93DF93EC014A015B01C901B801898A1C
S11322C09A8AAB8ABC8A20E03EEF4FEF56E40E9424
S11322D01E1920E23CEB4EEB5CE40E94B91A0E940A
S11322E0971980E090E00E94C61920E23CEB4EEB87
S11322F05CE40E941E1927E137EB41ED58E30E948C
S11323001E190E94021927E137EB41ED58E30E94A0
S1132310B91A6B017C0169837A838B839C8320E0E7
S113232030E048EC51E40E94B91A6D837E838F83B8
S11323309887A7019601C501B4010E94B91A9B01AF
S1132340AC016CEA75EC87EA9BE30E941E190E94BB
S11323509719AB0165E0CE010E94FE1081E0DF9188
S1132360CF911F910F91FF90EF90DF90CF90BF908E
S1132370AF909F908F900895EF92FF920F931F93C9
S1132380CF93DF9300D000D0CDB7DEB70E946E1B91
S113239000918D0610918E0620918F063091900643
S11323A0DC01CB01801B910BA20BB30BC397A105DE
S11323B0B10508F4F4C085EC96E00E94F20B61E0EC
S11323C070E085EC96E00E946C0762E085EC96E094
S11323D00E94660740E050E060E070E085EC96E023
S11323E00E94600760E085EC96E00E9478071982FD
S11323F01A821B821C8200918B0610918C0668E65F
S113240075E085EC96E00E94AC1D20E08AE0E82EA1
S1132410F12C0115110571F0E1E0F0E0EC0FFD1F66
S1132420E20FF11DC801B7010E94831E80838B0156
S11324302F5FEFCF7E0185E0E80EF11C03E010E092
S11324408091850690E00817190749F441E050E0AF
S113245060E070E085EC96E00E94720706C061E0DF
S113246070E085EC96E00E946C074AE050E0F701CA
S113247062917F0185EC96E00E945A1D033059F465
S113248061E070E085EC96E00E946C076EE285ECFA
S113249096E00E94861C0150110990F685EC96E0A6
S11324A00E948E1C61E070E085EC96E00E946C074F
S11324B062E578E085EC96E00E94631C80EB96E090
S11324C00E94D910AB01BC0140933F0650934006D3
S11324D0609341067093420623E030E085EC96E079
S11324E00E944A1E61E485EC96E00E94861C42E24A
S11324F050E060E070E085EC96E00E9460076DE4D7
S113250078E085EC96E00E94631C80EB96E00E94E4
S1132510EE1060933B0670933C0680933D069093C7
S11325203E0680EB96E00E94EE10AB01BC0122E077
S113253030E085EC96E00E944A1E66E585EC96E064
S11325400E94861C83E00E94101C42E350E060E07D
S113255070E085EC96E00E94600767E478E085EC23
S113256096E00E94631C4AE050E060918A0685EC84
S113257096E00E945A1D6EE675E085EC96E00E9496
S1132580AC1D85EC96E00E94BA0B0E946E1B609312
S11325908D0670938E0680938F06909390060F900D
S11325A00F900F900F90DF91CF911F910F91FF909B
S11325B0EF9008951F93CF93DF9300D000D000D005
S11325C0CDB7DEB7182F62E1CE0104960E94590DF3
S11325D063E1CE0101960E94590DCE0104961123A8
S11325E039F00E942A0DCE0101960E942A0D06C0E0
S11325F00E940C0DCE0104960E940C0D26960FB677
S1132600F894DEBF0FBECDBFDF91CF911F91089527
S11326101F920F920FB60F9211240F900FBE0F90BE
S11326201F9018951F920F920FB60F9211242F939B
S11326303F934F935F936F937F938F939F93AF9346
S1132640BF93EF93FF9381E090918606911180E010
S11326508093860687E896E00E94470D8823D1F38D
S11326608FE19EE40197F1F700C00000FF91EF9124
S1132670BF91AF919F918F917F916F915F914F9196
S11326803F912F910F900FBE0F901F9018951F929E
S11326900F920FB60F9211242F933F934F935F9392
S11326A06F937F938F939F93AF93BF93EF93FF9316
S11326B083B1837080939F069091A0068917D9F007
S11326C0811104C0913099F463E005C0813041F474
S11326D091110DC062E085E996E00E945F0C07C08D
S11326E0833019F4923019F4EFCF933099F3809139
S11326F09F068093A006FF91EF91BF91AF919F91A8
S11327008F917F916F915F914F913F912F910F9096
S11327100FBE0F901F901895CF93DF9300D01F9298
S1132720CDB7DEB719821A8280EC8B8322E0AE012A
S11327304F5F5F4F60E080E50E94551021E0AE01DD
S11327404D5F5F4F60E180E50E9455100F900F9040
S11327500F90DF91CF910895CF93DF931F92CDB760
S1132760DEB7262F8536E0F4843619F48FEF89839B
S11327700DC0811102C0198209C03FEF839FC001BF
S1132780112464E670E00E94971E6983642F822FEF
S113279021E0AE014F5F5F4F0E94551081E001C000
S11327A080E00F90DF91CF9108951F93CF93DF9333
S11327B000D0CDB7DEB740E060E584E10E94AC1301
S11327C083E00E94101C64E670E080E090E00E94C8
S11327D07C1B8EE00E94131C9A8389831A821982BF
S11327E013E08EE00E94131C29813A81820F931F0B
S11327F09A8389831150A9F789819A8163E070E0F3
S11328000E94831E7A83698329813A81ACE7B5E10A
S11328100E94CD1E0E94C61920E030EC4FE754E41C
S11328200E941E190F900F90DF91CF911F91089570
S11328300F931F93CF930E94D51B40E051EE60E0AD
S113284070E088E895E00E94780E64E778E088E814
S113285095E00E94631C60EA76E881E090E00E94C3
S11328603A0F81E00E94DA1260E480EB96E00E9465
S1132870BC1007E027E041E061E080EB96E00E94B5
S1132880121100E010E020E030E440EC5CEE6EE178
S11328907DE380EB96E00E944E1187EA96E00E9469
S11328A0F80C84EA96E00E94F80C81EA96E00E9413
S11328B02A0D83E080936B00C1E0C09368000E94FE
S11328C0D51360931D0570931E0580931F05909387
S11328D0200560E775E088E895E00E94AC1D409112
S11328E01D0550911E0560911F057091200522E081
S11328F030E088E895E00E944D1E8DEA96E00E9443
S1132900D00C8AEA96E00E94D00C87E896E00E94F8
S11329102A0D82E080936900E098CDBB0E948C135D
S113292021E04CE362E085EC96E00E941A0B61E042
S113293085EC96E00E94A10B85EC96E00E94F20BD8
S113294040E050E060E070E085EC96E00E946007B3
S113295061E070E085EC96E00E946C0761E085EC34
S113296096E00E94780762E085EC96E00E94660794
S11329706AE678E085EC96E00E94AE1C85EC96E071
S11329800E948E1C6FE578E085EC96E00E94631C43
S113299067E578E085EC96E00E94AE1C85EC96E055
S11329A00E94BA0B60ED77E080E090E0CF911F9138
S11329B00F910C947C1B8F929F92AF92BF92CF92F7
S11329C0DF92EF92FF920F931F93CF93DF9300D088
S11329D0CDB7DEB7813D27E0920708F068C08C01CF
S11329E0BC0180E090E00E94C6192FE832EC45E972
S11329F05FE30E94B91A0E94971905361105C0F4C5
S1132A002FE029839B01A1E0BEEF0E94CD1E0E940E
S1132A10C8196B017C0120E030E040E751E460918B
S1132A201D0570911E0580911F059091200529C0F8
S1132A309B01A1E0BEEF0E94CD1E0E94C8196B014C
S1132A407C0180901D0590901E05A0901F05B090FC
S1132A50200520E030E04EEF52E4C501B4010E94AD
S1132A60B91A9B01AC01C701B6010E941E190E944C
S1132A709719698370E080E090E00E94C819A5016D
S1132A8094010E94B91A9B01AC01C701B6010E94CE
S1132A901E190E9497196A8322E0AE014F5F5F4FAF
S1132AA060E080E50E94551081E090E002C080E083
S1132AB090E00F900F90DF91CF911F910F91FF90B5
S1132AC0EF90DF90CF90BF90AF909F908F9008953C
S1132AD040911B0550911C0580918B0690918C06AA
S1132AE020ED37E0241B350B8217930730F4840F55
S1132AF0951F90938C0680938B06089580918B0686
S1132B0090918C0620911B0530911C0528173907DC
S1132B1030F4821B930B90938C0680938B0608955C
S1132B200F931F93A89581E10E94131CBC01990F78
S1132B30880B990B0E94C81929E632EA49E85FE339
S1132B400E94B91A20E030E040E251E40E941E19CC
S1132B500E94971960938A0680918606882309F457
S1132B6042C080911A056817D8F580918B06909120
S1132B708C062091390630913A062817390731F02E
S1132B8090933A06809339060E94DB1480918A065A
S1132B908D3308F47CC00E946E1B009135061091A1
S1132BA036062091370630913806DC01CB01801BB4
S1132BB0910BA20BB30B81399140A105B10508F427
S1132BC066C08DEA96E00E94E30C0E946E1B60933F
S1132BD0350670933606809337069093380615C0F1
S1132BE01092860612C08091390690913A06892B7C
S1132BF041F080E090E00E94DB1410923A061092BB
S1132C0039068DEA96E00E94D00C81EA96E00E9493
S1132C10470D811125C00E946E1B009191061091F1
S1132C2092062091930630919406DC01CB01801B1F
S1132C30910BA20BB30B893C9105A105B10508F0DA
S1132C4041C00EC090931C0580931B050E946E1B0F
S1132C5060939106709392068093930690939406E2
S1132C6085E996E00E94190C81110DC085E996E072
S1132C700E942D0C833019F40E947E1504C082300A
S1132C8011F40E9468151F910F910C94BC110E94BD
S1132C906E1B00913506109136062091370630914F
S1132CA03806DC01CB01801B910BA20BB30B8139DD
S1132CB09140A105B10508F4A8CF8DEA96E00E94E1
S1132CC0BE0CA3CF809185068F5F843099F4109257
S1132CD085064091850681E090E020E03AE02417E3
S1132CE009F4B0CFBC01369FC001379F900D112469
S1132CF02F5FF5CF80938506ECCF65EA77E088E80F
S1132D0095E00E94AE1C61E777E088E895E00E94B8
S1132D10AE1C6EE477E088E895E00E94AE1C69E2A0
S1132D2077E088E895E00E94AE1C68EF76E088E8DA
S1132D3095E00E94AE1C6BEC76E088E895E00E947A
S1132D40AE1C6DE976E088E895E00E94AE1C60E771
S1132D5076E088E895E00E94AE1C61E376E088E8BE
S1132D6095E00E94AE1C63EE75E088E895E00E9451
S1132D70AE1C60EA75E088E895E00E94AE1C63E64C
S1132D8075E088E895E00C94AE1C64E875E088E88A
S1132D9095E00C94601E85EC96E00E94F20A64E0D3
S1132DA08DEA96E00E94590D6DE08AEA96E00E9451
S1132DB0590D69E087EA96E00E94590D67E084EABC
S1132DC096E00E94590D63E081EA96E00E94590D55
S1132DD060E170E085E996E00E94260C62E087E8F5
S1132DE096E00C94590D85E996E00C94920CBF92F0
S1132DF0CF92DF92EF92FF920F931F93CF93DF93C3
S1132E008C01B62ED42F7C01C0E088E895E00E94A6
S1132E105B0D1816190694F4CD1789F0670188E83C
S1132E2095E00E94870DF70181937F018B1104C007
S1132E30F60110828C2F08C0CF5FE7CFDC2FF8019A
S1132E40ED0FF11D108280E0DF91CF911F910F9162
S1132E50FF90EF90DF90CF90BF9008951F93CF9392
S1132E60DF93CDB7DEB727970FB6F894DEBF0FBE5A
S1132E70CDBF88E895E00E94FC0E882309F428C1A0
S1132E8088E895E00E945B0D892B09F421C140E498
S1132E906DE085E496E00E94F716809344068091E5
S1132EA04306882321F085E496E00E944320109194
S1132EB04406112309F40CC164EB78E085E496E040
S1132EC00E942C20892B99F461E478E088E895E04D
S1132ED00E94631C60918B0670918C064AE050E05E
S1132EE088E895E00E94491D6EE378E0EDC044E077
S1132EF050E069EC78E085E496E00E943520892B67
S1132F00D1F4412F50E04450510969E476E0CE01F8
S1132F1001960E944D20CE0101960E940E20813D13
S1132F2027E0920718F066E378E0CEC090938C0611
S1132F3080938B06B9C065EC78E085E496E00E9446
S1132F402C20892B21F481E080938606ADC060ECAF
S1132F5078E085E496E00E942C20892B19F41092E5
S1132F608606A2C06AEB78E085E496E00E942C20F5
S1132F70892B51F480918606882319F063E378E065
S1132F80A3C06FE278E0A0C06EEA78E085E496E042
S1132F900E942C20892BB9F469E278E088E895E056
S1132FA00E94631C40913F06509140066091410687
S1132FB07091420623E030E088E895E00E944A1EC2
S1132FC067E278E081C068EA78E085E496E00E94F0
S1132FD02C20892BB9F461E278E088E895E00E941E
S1132FE0631C40913B0650913C0660913D067091F4
S1132FF03E0622E030E088E895E00E944A1E6FE138
S113300078E062C062EA78E085E496E00E942C20D1
S1133010892B89F462E178E088E895E00E94631CDA
S11330204AE050E060918A0688E895E00E945A1DC3
S113303060E178E049C062E978E085E496E00E94C6
S11330402C20892B89F465EF77E088E895E00E94CD
S1133050631C4AE050E060911A0588E895E00E94FC
S11330605A1D63EF77E030C044E050E06DE978E04A
S113307085E496E00E943520892BC9F4412F50E065
S11330804450510969E476E0CE0101960E944D2036
S1133090CE0101960E940E208739910518F06BEE3F
S11330A077E012C080931A050E94C51611C068E922
S11330B078E085E496E00E942C20892B19F40E9484
S11330C07D1606C062EE77E088E895E00E94AE1CAB
S11330D027960FB6F894DEBF0FBECDBFDF91CF9118
S11330E01F910895A8950FB6F894A8958091600053
S11330F0886180936000109260000FBE98E288E1BE
S11331000FB6F894A895809360000FBE909360006A
S11331100E941814C4E3DEE00E942E170E9490154A
S11331202097D1F30E94340EF7CF5058BB27AA271B
S11331300E94AD180C94671A0E94591A38F00E9424
S1133140601A20F039F49F3F19F426F40C94561AAF
S11331500EF4E095E7FB0C94271AE92F0E94781AE5
S113316058F3BA17620773078407950720F079F4B8
S1133170A6F50C94B21A0EF4E0950B2EBA2FA02DDE
S11331800B01B90190010C01CA01A0011124FF2710
S1133190591B99F0593F50F4503E68F11A16F0400B
S11331A0A22F232F342F4427585FF3CF469537950A
S11331B02795A795F0405395C9F77EF41F16BA0BCF
S11331C0620B730B840BBAF09150A1F0FF0FBB1F7D
S11331D0661F771F881FC2F70EC0BA0F621F731FC6
S11331E0841F48F4879577956795B795F7959E3F23
S11331F008F0B0CF9395880F08F09927EE0F9795B4
S1133200879508950E949A1A90F09F3748F4911177
S113321016F40C94B31A60E070E080E89FE308951C
S113322026F01B16611D711D811D0C942D1A0C9422
S1133230481A0E94031A08F481E008950E94321982
S11332400C94671A0E94601A58F00E94591A40F0B0
S113325029F45F3F29F00C94271A51110C94B31AE6
S11332600C94561A0E94781A68F39923B1F35523E3
S113327091F3951B550BBB27AA2762177307840785
S113328038F09F5F5F4F220F331F441FAA1FA9F31B
S113329035D00E2E3AF0E0E832D091505040E69509
S11332A0001CCAF72BD0FE2F29D0660F771F881F6A
S11332B0BB1F261737074807AB07B0E809F0BB0B5D
S11332C0802DBF01FF2793585F4F3AF09E3F510571
S11332D078F00C94271A0C94B31A5F3FE4F3983EE9
S11332E0D4F3869577956795B795F7959F5FC9F75A
S11332F0880F911D9695879597F90895E1E0660FDB
S1133300771F881FBB1F621773078407BA0720F053
S1133310621B730B840BBA0BEE1F88F7E0950895BC
S11333200E9497196894B1110C94B31A08950E94DD
S1133330801A88F09F5798F0B92F9927B751B0F0A9
S1133340E1F0660F771F881F991F1AF0BA95C9F725
S113335014C0B13091F00E94B21AB1E008950C94F7
S1133360B21A672F782F8827B85F39F0B93FCCF3AA
S1133370869577956795B395D9F73EF490958095A2
S1133380709561957F4F8F4F9F4F0895E89409C0C2
S113339097FB3EF490958095709561957F4F8F4F84
S11333A09F4F9923A9F0F92F96E9BB279395F6959A
S11333B0879577956795B795F111F8CFFAF4BB0F18
S11333C011F460FF1BC06F5F7F4F8F4F9F4F16C07C
S11333D0882311F096E911C0772321F09EE8872F06
S11333E0762F05C0662371F096E8862F70E060E0C2
S11333F02AF09A95660F771F881FDAF7880F96953B
S1133400879597F90895990F0008550FAA0BE0E8DE
S1133410FEEF16161706E807F907C0F01216130692
S1133420E407F50798F0621B730B840B950B39F4D2
S11334300A2661F0232B242B252B21F408950A2638
S113344009F4A140A6958FEF811D811D089597F978
S11334509F6780E870E060E00895882371F4772323
S113346021F09850872B762F07C0662311F49927F3
S11334700DC09051862B70E060E02AF09A95660F9B
S1133480771F881FDAF7880F9695879597F908951F
S11334909F3F31F0915020F4879577956795B795C4
S11334A0880F911D9695879597F908959FEF80EC65
S11334B0089500240A941616170618060906089596
S11334C000240A9412161306140605060895092EFC
S11334D00394000C11F4882352F0BB0F40F4BF2B6B
S11334E011F460FF04C06F5F7F4F8F4F9F4F0895AB
S11334F057FD9058440F551F59F05F3F71F04795A1
S1133500880F97FB991F61F09F3F79F08795089585
S1133510121613061406551FF2CF4695F1DF08C0A4
S1133520161617061806991FF1CF869571056105C1
S1133530089408950E94801AA0F0BEE7B91788F491
S1133540BB279F3860F41616B11D672F782F882784
S1133550985FF7CF869577956795B11D93959639C2
S1133560C8F30895E894BB2766277727CB0197F91A
S113357008950E94CC1A0C94671A0E94591A38F0C4
S11335800E94601A20F0952311F00C94271A0C94D1
S1133590561A11240C94B31A0E94781A70F3959F4A
S11335A0C1F3950F50E0551F629FF001729FBB2736
S11335B0F00DB11D639FAA27F00DB11DAA1F649FD2
S11335C06627B00DA11D661F829F2227B00DA11D85
S11335D0621F739FB00DA11D621F839FA00D611D0B
S11335E0221F749F3327A00D611D231F849F600D2C
S11335F0211D822F762F6A2F11249F5750409AF055
S1133600F1F088234AF0EE0FFF1FBB1F661F771FE0
S1133610881F91505040A9F79E3F510580F00C94AB
S1133620271A0C94B31A5F3FE4F3983ED4F38695BB
S113363077956795B795F795E7959F5FC1F7FE2B4B
S1133640880F911D9695879597F908951F920F926B
S11336500FB60F9211242F933F938F939F93AF93A1
S1133660BF938091F4069091F506A091F606B0916F
S1133670F7063091F8060196A11DB11D232F2D5F89
S11336802D3720F02D570196A11DB11D2093F8066A
S11336908093F4069093F506A093F606B093F7068C
S11336A08091F0069091F106A091F206B091F30694
S11336B00196A11DB11D8093F0069093F106A0938D
S11336C0F206B093F306BF91AF919F918F913F9112
S11336D02F910F900FBE0F901F9018958FB7F894ED
S11336E02091F4063091F5064091F6065091F706C4
S11336F08FBFB901CA0108959B01AC017FB7F8944B
S11337008091F0069091F106A091F206B091F30633
S113371066B5A89B05C06F3F19F00196A11DB11DA8
S11337207FBFBA2FA92F982F8827860F911DA11D1F
S1133730B11D62E0880F991FAA1FBB1F6A95D1F7BC
S1133740BC012DC0FFB7F8948091F0069091F1066A
S1133750A091F206B091F306E6B5A89B05C0EF3F31
S113376019F00196A11DB11DFFBFBA2FA92F982FE3
S113377088278E0F911DA11DB11DE2E0880F991FAE
S1133780AA1FBB1FEA95D1F7861B970B885E93404F
S1133790C8F2215030404040504068517C4F2115C0
S11337A031054105510571F60895789484B5826018
S11337B084BD84B5816084BD85B5826085BD85B5D1
S11337C0816085BDEEE6F0E0808181608083E1E880
S11337D0F0E01082808182608083808181608083B8
S11337E0E0E8F0E0808181608083E1EBF0E08081BB
S11337F084608083E0EBF0E0808181608083EAE78D
S1133800F0E0808184608083808182608083808115
S1133810816080838081806880831092C1000895D4
S1133820809321050895982F8E3008F09E5097704C
S1133830809121058295880F880F807C892B809345
S11338407C0080917A00806480937A0080917A0071
S113385086FDFCCF2091780040917900942F80E080
S113386030E0282B392BC901089508950E94ED1EDC
S11338700895CF92DF92EF92FF920F931F93CF930D
S1133880DF937C016B018A01C0E0D0E00FC0D60158
S11338906D916D01D701ED91FC910190F081E02DC6
S11338A0C7010995C80FD91F015010400115110512
S11338B071F7CE01DF91CF911F910F91FF90EF909F
S11338C0DF90CF900895EF92FF920F931F93CF93C1
S11338D0DF937C018B01C0E0D0E0F8010F5F1F4F44
S11338E06491662359F0D701ED91FC910190F08128
S11338F0E02DC7010995C80FD91FEFCFCE01DF9185
S1133900CF911F910F91FF90EF900895DC01ED91FD
S1133910FC910190F081E02D09950895EF92FF92BA
S11339200F931F938C01DC01ED91FC910190F081C8
S1133930E02D6DE009957C01D801ED91FC91019099
S1133940F081E02DC8016AE009959C012E0D3F1D10
S1133950C9011F910F91FF90EF900895EF92FF928C
S11339600F931F937C010E94631C8C01C7010E946A
S11339708E1C9C01200F311FC9011F910F91FF90D4
S1133980EF900895CF93DF93DB010D900020E9F7CA
S11339901197A61BB70BEC01E881F9810280F38132
S11339A0E02DAD010995DF91CF9108954F925F927B
S11339B07F928F929F92AF92BF92CF92DF92EF92BB
S11339C0FF920F931F93DF93CF93CDB7DEB7A197E9
S11339D00FB6F894DEBF0FBECDBF2C01742ECB0101
S11339E0223008F42AE019A231E2C32ED12CCC0EE5
S11339F0DD1E822E9924AA24BB24672D752FA501D0
S1133A0094010E94AB1E79018A01C801B701A50186
S1133A1094010E94731E472D461B0894C108D108C7
S1133A204A3014F4405D01C0495CF6014083E1145E
S1133A30F1040105110521F07E2C5F2DC801DDCFB5
S1133A40C201B6010E94C21CA1960FB6F894DEBF53
S1133A500FBECDBFCF91DF911F910F91FF90EF90DB
S1133A60DF90CF90BF90AF909F908F907F905F90AA
S1133A704F900895DC012115310541F4ED91FC913D
S1133A800190F081E02D642F099508950E94D61CC1
S1133A900895EF92FF920F931F939A017B0100E028
S1133AA010E0B801A7010E943A1D1F910F91FF90E9
S1133AB0EF900895EF92FF920F931F939A01E62ED1
S1133AC0FF2400E010E0B801A7010E943A1D1F91F5
S1133AD00F91FF90EF900895CF92DF92EF92FF92B3
S1133AE00F931F93CF93DF93EC016A017B012115A0
S1133AF0310541F4E881F9810190F081E02D642FD2
S1133B0009951FC02A303105D1F477FF17C0E88129
S1133B10F9810190F081E02D6DE209958C01442733
S1133B205527BA014C195D096E097F09CE012AE0B7
S1133B300E94D61C9801280F391F04C02AE00E9455
S1133B40D61C9C01C901DF91CF911F910F91FF9069
S1133B50EF90DF90CF9008950E94C21C08957F9249
S1133B608F929F92AF92BF92CF92DF92EF92FF9289
S1133B700F931F93CF93DF934C017A018B01722E25
S1133B80CB01BA0120E030E040E050E00E94191976
S1133B9087FD03C0C0E0D0E00EC0D401ED91FC91DC
S1133BA00190F081E02DC4016DE20995EC0117FB51
S1133BB0109517F9109520E030E040E05FE3AA2467
S1133BC00BC0CA01B90120E030E040E251E40E9498
S1133BD01E199B01AC01A394A71498F3C801B70163
S1133BE00E9496185B016C010E9497197B018C015D
S1133BF0C401B801A7012AE030E00E943A1DC80FB1
S1133C00D91F772039F0C40160E071E00E94C21C22
S1133C10C80FD91FC801B7010E94C6199B01AC0186
S1133C20C601B5010E94951824C020E030E040E2AE
S1133C3051E40E94B91A7B018C010E9490195B0126
S1133C406C01CC24B7FCC094DC2CC401B601A501E2
S1133C502AE030E00E946C1DC80FD91FC601B501CF
S1133C600E94C8199B01AC01C801B7010E949518B4
S1133C707A947720D1F6CE01DF91CF911F910F91E5
S1133C80FF90EF90DF90CF90BF90AF909F908F9078
S1133C907F9008950E94AF1D0895EF92FF920F93B5
S1133CA01F937C010E94AF1D8C01C7010E948E1CD2
S1133CB0080F191FC8011F910F91FF90EF900895ED
S1133CC0EF92FF920F931F937C010E94C21C8C0100
S1133CD0C7010E948E1C080F191FC8011F910F9164
S1133CE0FF90EF900895DB018F939F930E94DC1E59
S1133CF0BF91AF91A29F800D911DA39F900DB29F84
S1133D00900D11240895AA1BBB1B51E107C0AA1FE3
S1133D10BB1FA617B70710F0A61BB70B881F991F68
S1133D205A95A9F780959095BC01CD01089597FB0C
S1133D30072E16F4009407D077FD09D00E94831E45
S1133D4007FC05D03EF4909581959F4F089570959A
S1133D5061957F4F0895A1E21A2EAA1BBB1BFD019A
S1133D600DC0AA1FBB1FEE1FFF1FA217B307E40756
S1133D70F50720F0A21BB30BE40BF50B661F771FAE
S1133D80881F991F1A9469F760957095809590958E
S1133D909B01AC01BD01CF010895A29FB001B39F67
S1133DA0C001A39F700D811D1124911DB29F700D40
S1133DB0811D1124911D08950E94CD1EA59F900D73
S1133DC0B49F900DA49F800D911D11240895EE0FB2
S1133DD0FF1F0590F491E02D09940F931F93CF9347
S1133DE0DF938230910510F482E090E0E091FB06CD
S1133DF0F091FC0620E030E0A0E0B0E0309719F14B
S1133E00408151810281138148175907C8F08417F2
S1133E10950769F4109731F012960C931297139644
S1133E201C9327C00093FB061093FC0622C02115A7
S1133E30310519F04217530718F49A01BD01EF0137
S1133E40DF01F801DBCF21153105F9F0281B390B0F
S1133E502430310580F48A819B816115710521F03C
S1133E60FB019383828304C09093FC068093FB063A
S1133E70FE01329644C0FE01E20FF31F8193919339
S1133E8022503109398328833AC02091F9063091B0
S1133E90FA06232B41F4209104013091050130935B
S1133EA0FA062093F90620910201309103012115AD
S1133EB0310541F42DB73EB74091060150910701F9
S1133EC0241B350BE091F906F091FA06E217F3078B
S1133ED0A0F42E1B3F0B2817390778F0AC014E5F76
S1133EE05F4F2417350748F04E0F5F1F5093FA06B3
S1133EF04093F9068193919302C0E0E0F0E0CF0192
S1133F00DF91CF911F910F910895CF93DF93009785
S1133F1009F481C0FC01329713821282A091FB063E
S1133F20B091FC06109781F420813181820F931F98
S1133F302091F9063091FA062817390751F5F093C4
S1133F40FA06E093F90667C0ED0120E030E0CE17F1
S1133F50DF0740F44A815B819E0141155105F1F070
S1133F60EA01F5CFD383C28340815181840F951F29
S1133F70C817D90759F488819981840F951F02962F
S1133F80918380838A819B81938382832115310568
S1133F9029F4F093FC06E093FB063DC0E901FB83A2
S1133FA0EA8349915991C40FD51FEC17FD0761F4B9
S1133FB080819181840F951F0296E90199838883FA
S1133FC0828193819B838A83E0E0F0E012968D9155
S1133FD09C911397009719F0FD01DC01F7CF8D91A7
S1133FE09C9111979D012E5F3F4F820F931F20914B
S1133FF0F9063091FA062817390769F4309729F43D
S11340001092FC061092FB0602C013821282B09337
S1134010FA06A093F906DF91CF910895FC01882751
S11340209927E89421912032E9F3293010F02E30B9
S1134030C8F32B3241F02D3239F4689404C00E9445
S11340405C20820F911D219120532A30C0F31EF46D
S1134050909581959F4F0895FB01DC018D9105900A
S113406080190110D9F3990B0895FB01DC0141502B
S1134070504030F08D910590801919F40020B9F763
S1134080881B990B0895DC016C9161546A3108F026
S113409060526F596D93C1F70895FB01DC014150E3
S11340A0504048F001900D920020C9F701C01D92C4
S11340B041505040E0F708957AE0979F902D879FF4
S11340C0802D910D1124089514E0C9E6D4E004C0B4
S11340D0FE010E94E71E2196CA36D107C9F7F8945B
S10540E0FFCF0C
S11340E22E000000FD062000000103070F1F3F7F82
S11340F20080C0E0F0F8FCFE0000000000000000B8
S113410200000000000000000000000000000000A9
S11341120000000000000000000000000000000099
S11341220000000000000000000000000000000089
S113413200000000000000808080000000000000F9
S11341420000000000000000008080C0C0000000E9
S11341520000000000000000000000000000000059
S11341620000000000000000000000000000000049
S11341720000000000000000000000000000000039
S113418200000000000000000000000080C0E0F019
S1134192F8FCF8E00000000000000000000000004D
S11341A20000000000808080808000808000000089
S11341B200808080808000FFFFFF0000000080807C
S11341C2808000008080000080FFFF80800080806B
S11341D200808080800080800000000000808000D9
S11341E2008C8E84000080F8F8F880000000000043
S11341F20000000000000000F0F0F0F0F0F0F0F039
S1134202F0F0F0F0E0E0C08000E0FCFEFFFFFF7F92
S1134212FFFFFFFFFF00000000000000000000009D
S1134222000000FEFFC70101010183FFFF00007CC3
S1134232FEC70101010183FFFFFF0038FEC78301AE
S1134242010183C7FFFF000001FFFF010100FFFF1F
S11342520701010100007FFF80000000FFFF7F00D3
S113426200FFFFFF000001FFFFFF0100000000004C
S11342720000000000000000030F3F7F7FFFFFFFEC
S1134282FFFFFFFFE7C7C78F8F9FBFFFFFC3C0F0CA
S1134292FFFFFFFFFFFCFCFCFCFCFCFCFCF8F8F05D
S11342A2F0E0C00001030303030301030300000061
S11342B200010303030301010301000000010303DE
S11342C203030101030300000003030000000303CE
S11342D200000000000000010303030303010000C7
S11342E200010301000000030301000000000000BC
S11342F2000000000000000000000080C0E0F0F9AF
S1134302FFFFFFFFFF3F1F0F87C7F7FFFF1F1F3D81
S1134312FCF8F8F8F87C7DFFFFFFFFFFFFFFFF7F4B
S11343223F0F0700303000000000000000000000D2
S1134332000000000000000000000000FEFEFC007F
S11343420000000000000000000000000000000067
S11343520000000000E0C0000000000000000000B7
S113436200003030000000000000000000000000E7
S1134372000000000000000000C0FEFFFFFFFFFF7E
S1134382FFFFFFFF7F7F3F1F0F071F7FFFFFF8F82D
S1134392FFFFFFFFFFFEF8E0000000010000000045
S11343A200000000FEFE000000FCFEFC0C06060EEF
S11343B2FCF80000F0F81C0E0606060CFFFFFF00D6
S11343C200FEFE00000000FCFEFC00183C7E66E6D7
S11343D2CE84000006FFFF0606FCFEFC0C06060661
S11343E20000FEFE0000C0F8FC4E4646464E7C78B5
S11343F240183C76E6CECC800000000000000000AD
S113440200000000000000000000000001070F1F70
S11344121F3F3F3F3F1F0F0300000000000000004A
S1134422000000000F0F0000000F0F0F000000003B
S11344320F0F000003070E0C18180C060F0F0F00C5
S113444200010F0E0C180C0F070100040E0C180CBF
S11344520F070000000F0F00000F0F0F00000000F5
S113446200000F0F00000007070C0C181C0C0606B6
S113447200040E0C180C0F070000000000000000DE
S11344820000000000000000000000000000000026
S11344920000000000000000000000000000000016
S11344A20000000000000000000000000000000006
S11344B200000000000000000000000000000000F6
S11344C200000000000000000000000000000000E6
S11344D200000000000000000000000000000000D6
S11344E200000000000000000000000000000000C6
S11344F20000000000000000D0075A010000409CA8
S11345024501000000000A07391C351C9404950576
S1134512AC054605C205F7051406000000000A07AB
S1134522391C3B0A9404E10886074605C205F705CF
S11345329A0B00000000FD0B00000000B90D391CAD
S11345425B0D870D6B0DA70D497365743A0043002B
S1134552537570706C7920566F6C7461676520694D
S10B4562733A20004F4B0000E6
S9030000FC
